:020000041000EA
:1000000000B5324B212058609868022188439860DF
:10001000D860186158612E4B002199600221596106
:100020000121F02299502B49196001219960352056
:1000300000F044F80222904214D00621196600F024
:1000400034F8196E01211966002018661A6600F04E
:100050002CF8196E196E196E052000F02FF8012189
:100060000842F9D1002199601B49196000215960AB
:100070001A491B48016001219960EB211966A021F2
:10008000196600F012F800219960164914480160C1
:100090000121996001BC002800D000471248134993
:1000A000086003C880F30888084703B5996A0420EC
:1000B0000142FBD001200142F8D103BD02B5186610
:1000C0001866FFF7F2FF186E186E02BD00000240BE
:1000D000000000180000070000035F00212200005C
:1000E000F4000018222000A00001001008ED00E03C
:1000F00000000000000000000000000074B24E7A12
:1001000000200420F7010010C3010010C5010010F9
:10011000C1010010C1010010C1010010C101001097
:10012000C1010010C1010010C1010010C701001081
:10013000C1010010C1010010C9010010CB01001065
:10014000CD010010CD010010CD010010CD01001037
:10015000CD010010CD010010CD010010CD01001027
:10016000CD010010CD010010CD010010CD01001017
:10017000CD010010CD010010CD010010CD01001007
:10018000CD010010CD010010CD010010CD010010F7
:10019000CD010010CD010010CD010010CD010010E7
:1001A000CD010010CD010010CD010010CD010010D7
:1001B000CD010010CD010010CD010010CD010010C7
:1001C00000BE00BE00BE00BE00BE00BE00F04BF888
:1001D000103800BEF2EB887180370410D837041055
:1001E0003402001090A31AE700202149086006C8D5
:1001F00081F3088810471F48006800282FD10DA4FC
:100200000ECC002902D000F012F8F9E71A491B4A77
:10021000002000E001C19142FCD1194988471949E9
:1002200088471949884700BEFDE701C901C29A42C3
:10023000FBD37047D8370410C0000020DCD000206A
:10024000F40705100000042000000420F407051046
:1002500000100420001004200000000070470B482C
:100260002AF05EFF0047EFF30580C0B27047000040
:1002700008ED00E0000000D0E0D00020ECE5032015
:10028000EDDB0210E96C0210DDDC021057560000B5
:1002900006005250ABB36053272A04100600525098
:1002A000861C030288E90310060052505422A29DC6
:1002B000322A041005005250DE65F468F407051078
:1002C000F8B5C046054B0648033310B51B1A062B7C
:1002D00003D9044B002B00D0984710BDDCD0002080
:1002E000DCD00020000000000648074910B5091ABC
:1002F0008910CB0F5918491003D0044B002B00D0A4
:10030000984710BDDCD00020DCD0002000000000A9
:1003100010B5074C2378002B09D1FFF7D3FF054B0D
:10032000002B02D0044800E000BF0123237010BD61
:10033000E0D1002000000000681D0310094B10B53B
:10034000002B03D00849094800E000BF08480368B3
:10035000002B02D1FFF7C8FF10BD064B002BF9D0D0
:100360009847F7E700000000E4D10020681D031063
:10037000DCD000200000000070B51500540C5208BD
:10038000030092B2002904D0E90702D40B4817F009
:10039000F5FA944206D19C420FD022000849094840
:1003A00016F086FB9C4204D9E21A0749054816F06C
:1003B0007FFB9A4201D20549F1E770BD681D031029
:1003C000901D0310B84F0310C91D0310FB1D03102F
:1003D000F0B50025170087B00C9C0D9E039004918A
:1003E000059302950195059B9D4206D1019B039AB9
:1003F00093423AD2214817F0C1FA039B9D4211D291
:1004000063889B05F6D4019B049A01330193AB00EA
:10041000D058FF2263881340012B20D10CF082FEBC
:10042000307013E0022321880022C90019433800EC
:1004300009F0A8F800280DD16388DB0504D52288CF
:100440000F49104816F034FB6368336001350834F7
:100450000436C8E7029B406801330293D9E7022BB8
:1004600001D10CF0E3FC3060F0E73B68029ADB0856
:100470009A4201D20448BEE707B0F0BD831E0310C4
:100480006C1E0310B84F0310A41E031070B51500A6
:100490001E00040086B08200AA1803A809F041F8E3
:1004A0000B9B03AA01930A9B2900009320003300B1
:1004B000FFF78EFF06B070BD10B5014817F080FA47
:1004C0002A1E031010B504000161880008F0DFFF48
:1004D000606110BD10B50400002902D0C06809F0A9
:1004E0000AF8606909F007F810BD70B504000D0046
:1004F00001290ADC0121036949429A0040692FF071
:10050000ABFC00232560636070BD406808F0BFFF4E
:100510006368E060A360F4E710B5046842680023F4
:10052000022C01D1C3689B1852184260180010BDFC
:100530000368012B03DC426843698900CA50704795
:1005400042684B1E9B18494219404160704770B584
:100550000C001500FFF7E0FF0419002803D170BD5F
:1005600005702D0A0130A042FAD1F8E7704710B5A6
:100570000C000221FFF7D0FF002802D00470240AEB
:10058000447010BDF8B50500032905D80800002403
:1005900031F06AFB121206060123023999430C005E
:1005A000FE26B521090231432800FFF7E0FF271E90
:1005B00009D1AE61EC61F8BDF226F2E706492800E8
:1005C000FFF7D5FF7F3F7F2FF8D804492800394334
:1005D000FFF7CDFFEDE7C046FFB0000080B00000A0
:1005E00070B5C4690500002C07D07F2C0DD8B02150
:1005F000090221432800FFF7BAFFBD21AB690902B8
:1006000028001943FFF7B3FF70BD03492800FFF727
:10061000AEFF7F3CE9E7C0467FB0000070B50D003B
:1006200004211400FFF778FF002805D005708470BE
:100630002D0A240A4570C47070BD10B5DB0011434B
:100640001943FFF794FF10BD10B5072A09D8D2004F
:1006500007290CD80A438C21C9011143FFF787FFF2
:1006600010BD13004022083BDB001A43F0E7802353
:1006700008391943EEE7F8B5FF230F020E001112F7
:10068000194080239B013B43194305001400FFF7E9
:100690006EFF80239B00F1001E4331432800FFF7CB
:1006A00066FFC021FF23890139431C4028002143F4
:1006B000FFF75DFFF8BD4369890070B5CC58E021B4
:1006C000050043680902E41A043C23055B0D194345
:1006D000FFF74DFF2B680120022B07D1E40AE4024B
:1006E00004D080231B01E4186042604170BD70B5E6
:1006F0000500002083421CD16B699200D4586B68BE
:10070000FF26E41A0B02D021043C090219436310AE
:10071000334019432800FFF72AFF01232A681800F5
:10072000022A05D1B44303D00134FF346042604152
:10073000184070BD4369F822890070B5CC58F0218B
:10074000050043681202E41A043C63109BB21A438A
:1007500063025B0D09021943FFF760FF2B6801205C
:10076000022B07D1A40DA40504D08023DB03E418D9
:100770006042604170BD0000F8B5466804000F009B
:100780001500B30703D5BF210902FFF7F0FE902142
:100790003F02C90139432000FFF7E9FE2000064966
:1007A000FFF7E5FEA9B22000FFF7E1FE290C2000CB
:1007B000FFF7DDFE3000F8BD01E00000F7B50600F0
:1007C0000D00170007290AD8FF239A4307D180217B
:1007D000890139432D022943FFF7C9FEF7BDFB17F5
:1007E000FC185C4020002DF09FFA0023019000933C
:1007F0009F4203D020002DF09DFA0090009A019BAB
:1008000094466344172B1AD9802114412B02890185
:100810001943E4B221433000FFF7A9FE009AEB0030
:100820002B43910119433000FFF7A1FE002FD5DAC9
:100830002B002A000A493000FFF7FFFECEE7230C09
:1008400005D1220029003000FFF715FFEEE7002F49
:1008500000DA6442220029003000FFF78DFFBDE777
:1008600040420000036810B5012B06DDFF230C0099
:100870009C4302D0054817F0A3F8130290221202FD
:100880001A43C9B21143FFF772FE10BDD81E031000
:10089000036810B5012B06DDFF2314009C4302D032
:1008A000054817F08DF80B02982109021943D2B2BE
:1008B0001143FFF75CFE10BDD81E03100B02A821E8
:1008C00010B509021943D2B21143FFF750FE10BD13
:1008D00043699200D358426870B59B1A01221A43AB
:1008E0000C3A0C000500FFF7C6FEB22122002800DA
:1008F00023000902FFF7A1FE802321011940793B63
:100900001C40034B28001C432143FFF730FE70BD01
:1009100078440000F7B506000D00170007294DD8F0
:10092000072A4BD81F2B0DD8F824D0219B01E400B7
:100930002340C9011D430D43D10029433000FFF777
:1009400016FEF7BD1F3B1C00FF2322009A43130035
:10095000CA000192002B4CD13F2C21D9B94231D190
:10096000072701216F40B9400191B421019B090281
:1009700019433000FFF7FBFD3900A2003000FFF7FC
:100980007AFEC0214901EB0029431943BF013943D5
:100990003000FFF7ECFDBC21019B090219430AE07E
:1009A000B94202D03A00FFF74FFEC021A4008901EE
:1009B00021432C0221433000FFF7D9FD134929437D
:1009C000ED00BAE70802802189012143014330008C
:1009D000FFF7CDFD8021EB00294319433000FFF7DD
:1009E000C6FDC02149012943EB001943BF0139432A
:1009F000E1E7B942B4D0A200FFF73DFEC0214901B2
:100A00002943EB001943AF01F1E7C046C06F000076
:100A10004369890070B5CC584368E11A0439CB0AA0
:100A2000621C0DD0CA1C0BDA0C4DDA02AA4207D1A7
:100A3000E0230905490D1B021943FFF798FD70BD1E
:100A4000DB02F5D0054A9342F2D0BF210902FFF73D
:100A50008EFD631CF3D0024816F0B2FF00F8FFFFD2
:100A6000C21E0310F8B593001500426904009A589D
:100A70004368D020D31A043B0902000201320FD090
:100A8000DA1C0DDAFF221F000B4E9743B74207D145
:100A90005B100143134019432000FFF768FDF8BDC8
:100AA00080225200514001432000FFF760FD2900E1
:100AB0002000FFF7ADFFF2E700FFFFFF0B02D021A0
:100AC00010B5043A52100902D2B219431143FFF78C
:100AD0004EFD10BDE02310B5043909051B02490D78
:100AE0001943FFF744FD10BD70B514000B00072239
:100AF00021000500FFF70EFF8F21E400C901280047
:100B00002143FFF734FD70BDF0B58DB00792426808
:100B1000089394460368032604939B68040000939B
:100B20008289634405925A1C426000220F0004200F
:100B300001211B7803921E400096029201925BB243
:100B4000002B27DB2300002120001033A360059B2E
:100B5000E1819B001A00143006932FF07DF9089B69
:100B6000BD005B19009A0B93059B9B1A029A09938F
:100B70009D1A2E1D009AB600A6190423BA4200D36E
:100B80009DE0019A1A4223D13B00009AA349A44850
:100B900015F08EFF6368019E5D1C65601B789D11DA
:100BA0000D4095402E431D00054095400196009E46
:100BB0002E43DD100D4095400096029E2E431D00F1
:100BC0000D4095400296039E01322E430396B6E7F0
:100BD000009B03359900089BAD005918009B6519CF
:100BE000F81A13F039FB009F043E68600022974218
:100BF00000D090E0079B002B03D1019B1B0700D482
:100C0000F1E002230027019A1A400A92BA4204D066
:100C100007980DF085FE070030600026049B0B9DB1
:100C2000DB680893079B9E4200D07DE0099D039AF4
:100C300005350499AD000332631992008818190034
:100C4000039E002E00D09BE00C3A9B18069A1432AB
:100C5000A218934200D29CE00827009B089A9B00B0
:100C6000143DD31865190693029BB34200D09AE055
:100C700006230022012067685B427B433900009312
:100C80008446130065460878CE1B0540B5403F26D4
:100C90002A4345103540393E4E430195009D40B2F0
:100CA0007619019D0131B5402B430028EADBCE18AF
:100CB000B718B74200D0A5E067600DB0F0BD019A4B
:100CC0001A4205D00335AD00564B6519043E6B60E2
:100CD000079B002B00D089E7019B1B0700D585E708
:100CE000009B039A9A1A974213D3009A039B991A6E
:100CF0003A008900009B934200D177E79300049D5E
:100D000058182818069D0069EB1AE318186101327B
:100D1000F0E73B003AE7089906989300C958C31AD0
:100D2000E3181961013262E7009B029800221B1848
:100D30009C462968624505D30A9B002B1BD1CA0833
:100D400039490EE0089B90001858814211D1059B4B
:100D5000013B9B1A9B00E3185A69002A04D0CA0879
:100D600032492F4815F0A4FE6A685A6101360835E9
:100D700058E70132DEE76A6838000DF056FEF5E705
:100D80000F68002F01D107680F60013E043104385D
:100D900057E7191D1B68002B03D1521A92102449E2
:100DA000DFE70B0055E72A69002A11D1019B3B427E
:100DB00011D0039904980431890008580699B300AA
:100DC0000430C95808F0DEFB002804D043682B61CA
:100DD0000136043D48E7009B16499E19089BB60062
:100DE000F258D208BDE7029B002B02D0124816F041
:100DF000C5FD019B9B0700D43AE702980DF090FDDA
:100E0000306035E7059B3578013B5D1BAD0065190A
:100E100068690CF081FF013668614AE7901D031094
:100E2000B84F031080680310291F0310FA1E031027
:100E30004A1F03107C1F0310AC1F031070B5E92478
:100E40000578A4002B095B001C4103231C40C31838
:100E5000012C11D061239D436B426B41DDB2431CD9
:100E6000022C0DD1002A06D01A0000269657013315
:100E70001A00002EF9DB5B191B1A0B60200070BDF5
:100E8000032CF8D1C31CF6E710B53E2803D0402848
:100E90000DD03C2808D14239C9B22F2904D80A4BB9
:100EA000585C012300280BD1084816F0B3FB013928
:100EB000C9B27029F8D8064B585C064B5B56F1E76F
:100EC000002A00D0136010BDD31F0310E5200310CB
:100ED000032003107420031010B551283DD011D801
:100EE00049282ED007D8422803D0482826D00128E8
:100EF00006D18B5C10E04F2842D017D84C2820D068
:100F0000002309E0682816D00AD8642831D0662862
:100F10002AD06228F4D18B5601205B00184314E0DC
:100F20006C2803D0712811D06928E9D1920050585B
:100F30000FF0D8F809E05200535EEDE75200535A23
:100F4000EAE7920050580FF051F910BDD2008A180C
:100F5000106851680FF0B7F8F7E7D2008A181068E8
:100F600051680FF0CBF8F0E7920050580EF0CCF833
:100F7000EBE7D2008A18106851682DF033FAF5E7D4
:100F800092005058E1E7F7B51C000125002A02D174
:100F9000431EE418023D00220023002906D000234E
:100FA0000027E356DE0F00237242BB41002181423D
:100FB00003D11000190003B0F0BD160E00961E02FA
:100FC0000196267817023E433200009F019E641965
:100FD0003E4333000131EAE7F0B585B0019203AA40
:100FE00004000E001F001D68FFF74EFF402C09D1C2
:100FF000039B019A043CAD1A5A1EAA185D42019B3C
:1010000015405D195A213E3C62426241B14289411C
:101010002B183B60D2B22B004942FFF7B4FF04000B
:101020000D004F2E07D0532E07D130F05DFE01008A
:10103000200011F0F3FA05B0F0BD662E03D0642E47
:1010400004D12DF0CFF90EF05FF8F4E75A2E0FD946
:1010500080220023D20512196B41002B04D1002AF3
:1010600002DB0FF03FF8E6E729000FF02CF8E2E78B
:10107000002905D1044B984202D80FF0B7F8DAE7FF
:1010800029000FF03BF8D6E7FFFFFF3F13B5140030
:101090000193130001AA002908D1020001A9200030
:1010A0002EF0E0FE13BD815C197001330138FAD2D5
:1010B000F8E70000F0B587B01E000C9B150003AAEE
:1010C0001C6800900191FFF7DFFE009B0700402B9A
:1010D00008D1039BA41B5A1EA2185C423C23144057
:1010E000341900930C9AE3191360009E019B3E3E55
:1010F000642B14D0662B0DD04F2B2DD17142714132
:101100003800C9B2042F00D904202B002200FFF7B9
:10111000BDFF2FE028000BF001FF0500EEE72800DF
:101120000BF0FCFE2EF0A8F804900591714271417D
:10113000C9B28B0006AAD318083B22001B68042002
:10114000FFF7A4FF33005A1E934106AA9B00D31851
:10115000083B04341D68D1E7AB070DD1104B2A685A
:101160009A4209D1714271412300C9B23A00280064
:101170000EF059FF07B0F0BD28000BF057FE050038
:10118000042FBBD9FF21C31719403A0020002EF0CD
:1011900063FE009B3E2BB1D13B1FE418AEE7C04677
:1011A000F055031070B50C00512826D010D84828EF
:1011B00020D004D8012814D0422812D070BD4C2869
:1011C00003D0502801D04928F8D192001351F5E7F7
:1011D00068280FD007D864281BD0662813D062284F
:1011E000ECD1A354EAE76C28EFD0712805D0692828
:1011F000E4D1EAE752001353E0E7D200A2181360EB
:10120000DB175360DAE7180095002DF0C5FF285171
:10121000D4E7D20018008C182DF09CF82060616093
:10122000CCE70000F7B506000F0014001D0064288D
:101230000DD0662804D04F2813D19400E35105E067
:10124000940018000F190BF069FE3860F7BDD40048
:1012500018000F190BF062FE2EF00EF8386079605E
:10126000F4E703232B40019311D10E4B2A689A42D5
:101270000DD1019A01004020FFF706FE23004343F1
:101280000200FB18019928000EF0CDFEDEE72800D1
:101290000BF0CCFD2200030039003000FFF782FF85
:1012A000D4E7C046F055031073B50C0001A92068BF
:1012B00011F050FD0500606811F01EFD0023019A39
:1012C000290008F0B6F80600A06811F015FD5128B5
:1012D00007D0BB239B00984216D0502811D102257D
:1012E00000E00125082008F0D2F8084B0400036054
:1012F0000023290030001A0015F0E0FC6060200097
:1013000076BD034816F086F90025EBE72821031087
:10131000F2200310D023F0B51B068FB01B6801929A
:10132000354A9B009B58DA681F69009201281BD937
:101330004C68062C15D0A20710D1304A256895427A
:101340000CD12500022811D08A68062A0ED09007F9
:1013500004D12A4816681400864207D0002016F0EF
:101360000DFB009C3D00EDE73D00009C03220E6854
:1013700016422ED12249306888422AD11D61DC6094
:101380007368134204D11F4A1968914200D15D600D
:1013900002A8D0240BF07EFC240600280FD1706830
:1013A00015F084FC05000BF069FC2368124A9B00D1
:1013B000D358009A1F61DA6028000FB0F0BD23688F
:1013C0000D4A9B00D358009A1F61DA6003980BF016
:1013D00075FC012202A930000BF0A4FF0023039A40
:1013E0000299EC2008F025F82A002300019915F055
:1013F00065FC0500E0E7C04618E30320E44803105D
:1014000028210310C051031010B50222FFF782FFFC
:1014100010BD10B50122FFF77DFF10BDF0B589B0FA
:10142000002806D15F49604809F03EFE062009B059
:10143000F0BD0E685D4B9E426DD1002108000FF09B
:10144000E6FA002405000590594B5A68019294422F
:101450001AD3059E574D2C78002C23D1564A05A946
:1014600001200FF037F907AA06A905980FF0E6FA50
:10147000069BDE1CB608B30003934B4FA64247D031
:10148000A3000293019421E09B680193019AE30079
:101490009958002904D0042902D028000FF058F8E8
:1014A0000134D1E7280030F01FFCC11E04002800E1
:1014B00011F0B4F80134010030000FF049F82D1993
:1014C000C9E7039A029B944663440293079B029ADE
:1014D000985811F027FC0100380009F0E5FD019B48
:1014E000069A9B19019393420CD212231D1A002DC8
:1014F00006DD013DE5D33149380009F0D5FDF8E7B7
:101500001235F4E72E49380009F0CEFD0134B4E776
:101510002C49380088E730000BF0F6FB0400224D20
:101520002949280009F0C0FD002130000BF01AFC09
:10153000E288264928000AF051F9254B9C4227D120
:1015400074680434002C00D170E7002663689E4262
:1015500000D36BE7A268F300D3181F68002F15D0E3
:101560005B681C492800019309F09EFD00213800AA
:101570000BF0F8FB1849280009F096FD00210198AE
:101580000BF0F0FB0E49280009F08EFD0136DDE777
:10159000124B9C4200D13400A46B002C00D145E7D3
:1015A0000434D2E7D4D20310C83C03106213000005
:1015B0003C58031018140410CC480310997F0310F2
:1015C000957F0310642103108821031090210310DC
:1015D00040590310C3C10310A02103100C6B03106A
:1015E00010B5040007F050FB002802D120001CF0C9
:1015F00043FA10BD10B5040017F029F9FFF7F0FF0A
:1016000002280DD063686D22991E200017F08AF918
:10161000200017F01CF9FFF7E3FF0023022800D198
:101620000223180010BD000010B5040017F00FF9D8
:10163000FFF7D6FF012806D02000034917F066F90E
:101640002000FFF7D7FF10BD7723041070B504000A
:101650008EB010000E0014F001FED0250222C00052
:101660000243B72120002D0615F080FC2B6862682C
:10167000144C9B001B5902A819691A610091D96882
:10168000DA6001910BF006FB011E10D10200300060
:1016900003F0B0FF15F00AFB0BF0F0FA2B68009A8C
:1016A0009B001B591A61019ADA600EB070BD2B685D
:1016B000009A9B001B5903981A61019ADA600BF09B
:1016C000FDFAC04618E3032073B50E0005000800BC
:1016D00017F0BDF801AA7168040007F0FBFA0228B0
:1016E00005D1220001992800FFF7B0FF73BD736890
:1016F0002000E318033B1B786D2B04D114F094FCFD
:1017000022000100EFE707F0A1FE022204000368B7
:10171000B721DB001A43280015F028FC6A68012174
:101720001300200015F0CAFAE0E70000F0B5AFB0F2
:1017300000AF0C68032809D9CB687B6004284ED021
:101740000D696D1005D5002015F064FF06230025F6
:101750007B6018232000F91811F0FCFA7861002D45
:101760006FD0D0266B1E36063B613368C84D9B0098
:101770005B59BA2118690DF0B9F80400C308152B9C
:1017800007D13368AA219B005B5918690DF0AEF8A8
:101790000400D0231B061B6800229B00EB58BD49A8
:1017A0001869043007F0EEFE18222023BA18D11869
:1017B0000500200011F0CEFABB6B0100C418002D0B
:1017C00005D1A14203D2013C23782E2BF9D13B69EC
:1017D0005A1E3A6109D2A1420AD1AF48B4E70025A6
:1017E000B7E7013C23782E2BF1D0A142F9D3EEE7E5
:1017F000BE69641A2500002E01D0751C65192B00E6
:101800006A460E33DB08DB00D31A9D46220018001F
:101810003B612EF027FB002E08D02E233A69601C76
:1018200013551018796932002EF01CFB2900386915
:1018300014F068FC0224C3001C4314F022FDBD61B7
:101840007861BB69002B00D17DE7200011F054FACC
:101850000FF0F2FA061E14D02E21786930F054F9F8
:1018600000280AD07B68062B07D17B69C11A1800B3
:1018700014F048FC0FF0E0FA06003000BD462FB02F
:10188000F0BD1822202318200125BA18D2183818C4
:10189000103B8021C01816F07EFF3E60FE60BB69E1
:1018A0009D4204D97B68062BE7D13E68E5E79D425F
:1018B00004D07B695B5D2E2B00D0A6E029007869FF
:1018C00014F020FCFC6AB860002C00D09FE01822C5
:1018D0000823BA18D2181433F91870480FF0AEF86C
:1018E000FB69002B6CD12A00796918201023381865
:1018F000C01816F00DFF18221023BA18D018FFF7E1
:1019000093FE38613B69002B5DD0B8680FF094FA04
:10191000041E64D1B8680FF02DFABB6904009D4223
:1019200000D081E07B680E2B7ED13B69012B7ED0FD
:10193000AA22BA2140680DF078F82200AA2158485E
:101940000DF073F8BB68AA21DA00022360681A431D
:101950000DF06BF818221023BA18D1182000FFF7E9
:10196000B3FE3CE018210C220023791889183A6A4A
:10197000FB62A300985811F0EDF97A6A0100002A81
:101980000CD0182010233818C01816F0C1FE1822E9
:101990001023BA182F21D01816F070FF182010232A
:1019A0003818C0182A00796916F0B2FE18221023E0
:1019B000BA18D018FFF738FE38610028A5D10134D5
:1019C000FB699C42CED3BB699D425BD178690FF025
:1019D00001FA041E56D00100B8680FF017FA002E65
:1019E0000CD07A69FB689446E91A6344180014F035
:1019F00089FB22000100300015F0B8FA3B68002B8B
:101A000000D13C6026006B1CFB60013547E71822C3
:101A10001023BA18D0182F2116F030FFFB68F96890
:101A2000EA1A7B69591860E73B69012B92D1F96A80
:101A3000386B10F0F3FDCA210200200015F096FA71
:101A4000FB6A18223B611023BA18D0182F2116F018
:101A500015FF18221023BA18D018124916F056FF95
:101A600018221023BA18D018FFF7C4FD022806D197
:101A700018221023BA18D1182000FFF725FE3B6961
:101A8000FB62ACE7BA680849084815F011F8C0468F
:101A900018E3032052060000B421031040E10320A4
:101AA000DCE003206C240410D2210310F84B031057
:101AB00007B5CA216A4614F07DFF0098431E98417D
:101AC000C0B20EBD436A5B8B012B02D0036959186B
:101AD0000161704710B50400C36A806ADB6F9847E4
:101AE000A38B626A01339BB2A383D18C994200D24B
:101AF000D38410BD10B50400838B013B8383C36A7C
:101B0000806A0833DB6F984701212000FFF7DAFF76
:101B100010BDF7B507000D001E0000290BD00324EF
:101B20000C4010D14B68D9B291420CD11B0A0193E1
:101B3000019B9C4200DBF7BDA300EB1899683800BD
:101B4000B0470134F4E729003800B047F3E7F0B5B7
:101B500089B004000D0006920793002B03DD0823D3
:101B60000A8B13430B836B4630221B8B2B84636AD7
:101B7000198B0A431A831B78002B13D00026039677
:101B8000626A538D9E4217DB039B002B0AD0079A93
:101B9000E36A0092B8331E68039A069B2900A06A84
:101BA000B04707E0E36A069AB4331E682900079B32
:101BB000A06AB04709B0F0BDD26AF300D31805930C
:101BC0001B78043B012B05D800230493049A6B8DEA
:101BD0009A4201DB0136D3E7049BEA6ADB00D318A3
:101BE0001A78052A0ED1059A5B685168994209D185
:101BF000E36A52885B69A06A1F000023B847039B11
:101C000001330393049B0133DFE70000F7B50F00B6
:101C100011001A00C38A8579868A01930023040083
:101C200083718382C382114BFFF773FFA368002B7C
:101C30001BD1E18A00290BD0A28A002A08D1E36ACD
:101C4000A06AA0331B689847E36AA06A5B6C984758
:101C5000A38AE28A39002000FFF779FF6B1E9D41BD
:101C60006B469B88A571A682E382F7BD993400106C
:101C700010B5034B9D228968FFF74BFF10BDC0468E
:101C80008141001010B5034B6B228968FFF741FFBB
:101C900010BDC0461D1F001010B50400C36A00210E
:101CA00088331B68806A9847E36AA06A5B6B0E21E1
:101CB0009847E36AA06ACC331B6801219847032147
:101CC0002000FFF7FFFE10BD70B50400C36A0022BC
:101CD0009B6C806A9847E36AA06AC0331D68002342
:101CE0001A001900A8472000FFF7D6FF70BD10B5F5
:101CF000C36A89685B6D09090022806A984710BD34
:101D000010B5C36A89681B6C806A984710BD10B50E
:101D1000040008001100226815F05AFF636A43604E
:101D200000238360236A002B02D1206210BD1300C0
:101D30009A68002AFBD19860F8E770B543790400EF
:101D40000D00012B06D1436A0A005B8B0221FFF7CD
:101D5000DEFF2861AA6829694C232000FFF756FF9F
:101D600070BD70B51300427905000C00012A04D142
:101D70000A000721FFF7CBFFA061A6692800310008
:101D80004623E268FFF742FFF08A70BD10B5427942
:101D9000012A03D1406A15F05AFF10BDC46A0B0036
:101DA0001434426A2100806A03F0BDFBF5E710B5E8
:101DB0004379012B03D1406A03F0A7FB10BDC46A2D
:101DC0000B001C34426A2100806A03F0ACFBF5E78B
:101DD00010B5436A04005A8BFFF7C3FF01002000CF
:101DE000FFF7E5FF10BD10B54379012B03D1406A21
:101DF00003F08BFB10BDC46A0B002434426A21003F
:101E0000806A03F090FBF5E7F0B589B000AF0500FC
:101E10000C1E02D10121116016E003230B401BD1DF
:101E200009793B61682907D1E3681B091360A4683D
:101E30000123002CEED03B610F232340022B0DD158
:101E40003B692109002BE6D0EB6A00221B6BA86AD4
:101E50009847BD4609B0F0BD0023ECE73B69002B75
:101E600002D1A3681B091360002663681B0ABB60CC
:101E7000013BFB60BB689E422ADB6A46FB680E336F
:101E8000DB08DB00D31A9D467B601E0000237B61CC
:101E90007B69BA68934226DBF968786814F032F9F6
:101EA000EB6A01001B6B0022A86A98473B69012678
:101EB000002BCED0BB689E42CBDAB300E318996802
:101EC000EB6A09095B6D0022A86A98470136F1E7C1
:101ED000B300E31898680136000914F0CDF9FB68E7
:101EE0001B18FB60C6E77B69002B02D02E233370E2
:101EF00001367B699B00E31898681C230009F918D8
:101F000014F0C4F9FB6901001A0030003B602DF0A9
:101F1000A9FF3B68F6187B690133B8E737B50400C1
:101F20000D00C36A00219B6B806A9847E36AA06A30
:101F30005B6B0E219847290001AA2000FFF764FF80
:101F400001992000FFF733FF37BD0368002B05D14F
:101F5000002903D08B0701D10B6803607047000094
:101F6000836870B504000D00002B09D111000548ED
:101F70000CF0DCFEA060200029000C30FFF7E5FF2C
:101F800070BDC046404F0310F0B591B06B460400E1
:101F900006920D001B7E8C4A4371616200212B78F2
:101FA0000161072B2ED1069B012B06D90200436B42
:101FB00008321B680699006B98476379EF68032B1A
:101FC00010D138000FAA46210C302FF035FE636B7C
:101FD00001009B680F9A206B9847A368A883002B89
:101FE00000D0BCE0396900294AD00F220A40022AF9
:101FF00042D10B095E2B3DD009D8013A05923E2B08
:102000000CD0724A2000FFF7ABFF11B0F0BD752B6A
:1020100039D003206E4A05909342F2D17B690EAA13
:1020200019210DA80D932FF007FE00230A900993A4
:10203000099B0A9A934228D16379012B16D9636BC5
:1020400005995B68206B98476379042B0ED1059B3B
:10205000606A039300230293818B226B01910093AA
:1020600093680521D268006903F0A0FAA368002BE9
:1020700075D1CAE70592D1E7564A2000FFF770FFF5
:1020800002230593CAE70023FBE7099B9B00079304
:10209000079A0E9B9958FF224B681340082B02D1D8
:1020A000099B0133C3E7052B01D04B4AAAE7CB6854
:1020B000002BFAD1FF208B685A6802402C2AF4D1F9
:1020C0009D681D3A2A40022AEFD1DE68002EECD02E
:1020D000B307EAD173680340302BE6D130000FAA72
:1020E000A42108302FF0A8FD3C4B2D0908909D42FB
:1020F0001CD1012804D03A4A0E9B0799595881E710
:102100000F210F9A13680B40022BF4D121694B1C4D
:102110002361069B012B1ED91268636B1209DB68D1
:10212000206B9847002816D12E4AE5E79223FF330B
:102130009D4217D1089B012B01D02B4ADCE70F9B56
:102140001968089B1942F8D0069B012B03D9491046
:10215000206BFEF7F5F9A368002BA1D037003B6890
:10216000E36052E7CE23FF339D4220D1089B012B31
:1021700001D81E4AC0E701250F9B1B682B42F8D0EF
:10218000069AAA42E7D92B410B930F9AAB009A58B3
:1021900001231A4201D1164AAEE752100B99206B67
:1021A000FEF7D5F9089B0135AB42EED1D3E7069B8C
:1021B000012BD0D9636B29001B69089A9C46206BC0
:1021C0000F9B6546A847C6E7E62403100A250310BF
:1021D0002B030000172503103F2503103F020000CA
:1021E000622503107E2503108E250310AA250310F7
:1021F000CF25031010B5024AFFF7B2FE10BDC0464E
:10220000F12503100B7970B50400092B10D1058B53
:10221000084B9D4203D1084A2000FFF7A1FEE38B43
:10222000A28B2900D21AE36AA06A9B6F984770BDFF
:10223000458BEDE7FFFF0000AE2203100F23F0B542
:102240008E6885B004000D0033400E2B06D0002EA2
:102250002FD0B3072DD13379652B1CD102960026E0
:1022600003AA652102A82FF0E7FC0021039B800050
:10227000404A1818984214D13F4BEA689A4236D126
:10228000636A1F78002F16D03C4A29002000FFF710
:1022900067FE05B0F0BD622B0BD1B3680293F66800
:1022A000DEE71F68974202D101310433E2E70331D0
:1022B000FBE70021E0E7E36AA06A9B6B9847E36ACB
:1022C000A06ADB6B05219847E36A3A00A0331B68DC
:1022D000A06A0121984703AA31002000FFF794FD6E
:1022E000E36A02221B6B3900A06A9847D1E7E36AD0
:1022F000A06A9B6B9847280002AA0C306A212FF035
:102300009BFC00250700E36ABD4212D1A0331B6885
:1023100000222900A06A9847310003AA2000FFF795
:1023200073FD0026B5420ED1E36AA06A1B6E984782
:10233000AFE70299AA005258DB6B9168A06A0909BD
:1023400098470135DFE7029AB3009F58A06ABB683F
:1023500001221B090193E36A01991B6B9847F968F5
:10236000002905D101992000FFF721FD0136D9E7A9
:102370000909F8E7BE0500000E0400008B240310D5
:1023800070B500250600A94210D00F230B40022B88
:102390000ED10C0920000AF039FC051E06DA2200D5
:1023A000054906480CF04CFD0025B060280070BDC2
:1023B000034AFFF7D5FDF9E7B92603106C50031067
:1023C0001E250310F7B50D0002210F000400406A1E
:1023D00001920093028B8C46174005D0334A2900A6
:1023E0002000FFF7BDFDF7BD0F262900314002296F
:1023F00017D1A2792909002A03D0C38B0133C383E3
:1024000003E01700838B0133838301260029EAD080
:10241000002215F01CFC03780090002B2ED0244ADB
:10242000DDE72979019B2F00994208D1AB68190992
:10243000A379002BE1D1838B01338383E5E7009BF4
:10244000994214D1A779002FC8D10123A371A9689B
:102450000029C8D003331A430E400283022E02D152
:10246000D9400326D2E78B680F001909F9E7AB685A
:1024700005261909634613430383C7E70323009A1C
:1024800013705670636A5B8B032BACD1019B482B96
:10249000A9D1002FA7D0F9682000FFF771FF009A9B
:1024A00003015078184350709DE7C046C2240310C2
:1024B000D124031010B54F234E22FFF783FF10BD28
:1024C00010B549234822FFF77DFF10BD37B5040042
:1024D0000D1E16D0CB0705D5C36A49109B6BA06AA9
:1024E00098470EE08B072DD008090F210D40062DCF
:1024F00008D00A2D0AD0022D1CD101002000FFF7C0
:1025000045FC37BDE36A0100DB6BE8E76379042B28
:1025100003D0E36A06211B6CE1E701A913F0B6FEC4
:10252000E36A0199A46A1D6C10F01CF901002000F7
:10253000A847E6E70428E4D0E36AC1B25B6BA06A6F
:102540009847DEE7C36A09681B69806A98472B7958
:10255000024A9B009B5829002000C1E71C2303105E
:10256000F7B5040003200D00160001420FD00F2321
:102570000B40022B16D109092000002A01D0022AA3
:1025800002D1FFF714FCF7BDFFF700FCFBE74A6838
:10259000FF2713003B402D2B77D009D8062B0BD0FB
:1025A0002C2B10D0534A29002000FFF7D9FCEAE772
:1025B0002E2B7CD09D2BF5D1002EF3D12B00120AAF
:1025C000083300217BE0022E03D089682000FFF74A
:1025D0007DFFEB680093002BE4D00323009A1340A7
:1025E000E0D117005268D1B28E2909D1120A0192A6
:1025F0001F00022E19D1019B009A01339B009F58A6
:102600003B79312B26D1022E14D1E36AA06A9B6E4E
:102610009847E36A1B6D012119E0009ABB00D318AB
:1026200099682000FFF752FF0137019B013B9F4251
:10263000F3DBE0E7B9682000FFF748FFE36A012E0B
:10264000E8D1DB6DA06A98470021E36A1B6DA06AA0
:10265000984798E7322BA5D1E36A012E0AD19B6DEA
:10266000A06A98470022E36AB9685B6D0909A06A0D
:10267000984788E7022E02D15B6EA06A9847B96836
:10268000E36A09095B6D0122F1E78868002889D0B7
:10269000002E87D1C368002B27D003221A4024D1F3
:1026A0005968CEB2952E18D11300816807E0002E2C
:1026B00000D077E78968002905D10B000A002000C7
:1026C00000F01AF85FE7014204D14B6808001F4090
:1026D000922FDFD000231A00F1E7962E02D10833A3
:1026E0000A0AE2E7AC2E00D15CE7030002220833BD
:1026F00067E7C046F4210310F0B587B003920A00E3
:102700001F00531E9A4105000E1E0492009237D0FE
:1027100003240C4034D10B79222B31D1C36A039AA4
:10272000B0331B682100806A9847039B0597013BE3
:102730000193049B0293019B013324D1631C48D174
:10274000049B039AA86A9918EB6AAC331B689847F4
:10275000002E48D1039A049B944663441E00009BBC
:10276000B34234D0009B9C4240D100223B68996820
:102770002800FFF7F5FE009B043701330093EEE7D6
:1027800001246442D1E7059B1968002911D0032375
:1027900019420ED1FF224B681340222B09D1631C32
:1027A00011D1EB6A019AB0331B680299A86A984765
:1027B000029C029B01330293059B04330593019B0A
:1027C000013B0193B7E70B4A2800FFF7C9FB07B0AD
:1027D000F0BD002EBED0002C05D12200B16828002B
:1027E000FFF7BEFEB6E700223100F8E700223968A5
:1027F000BEE7C0460F220310F0B504000D0017001D
:10280000032685B0019328002FF09EF9002805D0FB
:10281000002F44D1E36A0199DB6E29E028002FF0F4
:1028200033F9002802D0002F39D0F3E7002D4CD027
:1028300035424AD16B681A0A0292FF2213401E2BBE
:102840002FD1002F31D10026236903930133236157
:10285000029B013B9E420EDB029E019B0136B600AD
:1028600071593A002000FFF7C7FFE36A0399DB6A5A
:10287000A06A984713E00122B1006918039B7A40CF
:1028800089682000FFF7B8FF0136E1E7A968019BDE
:102890003A002000FFF7B0FF0435B542F6D105B08D
:1028A000F0BD1F2B05D1002FCDD1029B9E00AE198C
:1028B000F3E7202B03D11F3B5F40AD68A3E72D2B2F
:1028C00003D1AB68002BAED1A2E729002000FFF7AF
:1028D000FDFDE36A019A1B6F3900A06A9847DEE7A5
:1028E000F7B504000D0006690093731C0193B31C37
:1028F0000361C36A3100DB6A806A17009847E36AA4
:10290000711C8C331B68A06A9847A96800222000BC
:10291000FFF726FE2D69002D2DD139002000FFF78D
:10292000D5FD636AE06A197806291CD1CC300368AA
:102930002900A06A984720000121FFF7C3F8E36A45
:10294000A06A1B6E9847E36A3100A06ADB6E984765
:10295000E36A0199A06ADB6A9847E36AA06A903348
:102960001B689847F7BD009BA8309A0005680532A0
:10297000A06AA847E7E7FF226B681340AD2B07D199
:10298000A968330000222000FFF736FFED68C2E798
:10299000E9682000FFF79AFDE36AA06A88331B68A4
:1029A00001219847009B3A00013329002000FFF7DE
:1029B00097FFC8E7F7B504000D0000266271C36AEF
:1029C0001100456206611B682A00806A984706214B
:1029D0002000FFF777F86779012F01D1AE84EE84EC
:1029E000EE68002E0ED0B3070CD133793F2B09D1FE
:1029F000B1682000FFF76AFDE36AA06AC4331B6870
:102A000098472DE02B78002B09D131002000FFF7EB
:102A10005DFDE36A5B6B0E21A06A9847ECE7072B2C
:102A200023D1012F12D10023A37146225E4BF168FE
:102A30002000FFF76EF86B8B032B07D13169200064
:102A4000FFF79EFC8301288B1843288320007169BF
:102A5000FFF73CFDE36AA06A9B6898470028D8D03E
:102A6000E36AA06A5B689847F7BD022B1BD1E36A53
:102A700031681B69A06A98476379012B07D100234D
:102A8000A3714C22494BB1682000FFF742F8F1686E
:102A90002000FFF71BFD2B8BDB07ADD5E36AA06A97
:102AA0001B6E9847B5E7033B032B4FD8F3680193A0
:102AB000012F05D103223900606A15F0C8F8AF83F1
:102AC000E36A31681B69A06A98472B78032B24D1ED
:102AD0000122E36AA0331B680021A06A98472B7883
:102AE000062B28D1E36AA06A5B6C9847012120007D
:102AF000FFF74CF9E36AA06A5B6C9847E36AA06A47
:102B00005B6C98470023B26801992000FFF7E8FE4C
:102B10002B78062B00D06FE77BE7042B04D1E36A08
:102B20000222A0331B68D7E7052BD8D1E36A032222
:102B3000A0331B68D0E720000121FFF727F9E36AE3
:102B4000012188331B68A06A9847DBE7012F04D175
:102B500003220A21280015F07AF817212000FFF738
:102B600015F916212000FFF722F9B368A06A1909A8
:102B7000E36ADB6B98471A212000FFF718F93169E7
:102B80002000FFF7A3FC0A21280015F050F8027876
:102B9000E36A032A00D13DE742885D690A210023E8
:102BA000A06AA84728E7C046C1240010B524001039
:102BB000436A70B51B780400072B05D0022B03D0A5
:102BC000144AFFF7CDF970BD8D68002D0FD1E36A6F
:102BD0000E215B6BA06A9847E36AA06ACC331B683E
:102BE0000021984701212000FEF76CFFEBE7AB07BF
:102BF0000AD12B79AF2B07D12000A968FFF766FC1B
:102C00002000FFF749F8DEE729002000FFF75EFC0F
:102C1000E2E7C046CB2603100F2370B50B4004003B
:102C20000D001600022B02D00B4AFFF799F9310074
:102C30002000FFF74BFCE36AA06A9B6D9847666A29
:102C40003378033B032B01D87368636229092000A2
:102C5000FFF7ADF8666270BDF421031010B5CA68C5
:102C60008968FFF7D9FF10BD70B5437904001600DD
:102C7000CD68012B06D1436A0A005B8B3100FFF758
:102C800046F868610023696920001A00FEF75FFFBB
:102C9000E9682000FFF71AFC062E05D1E36A00213F
:102CA00088331B68A06A9847E36A0121BC331D681A
:102CB0000023A06A1A00A84770BD0000F0B58BB0D1
:102CC00007910692040009AAA42107A81F002EF06C
:102CD000B3FF00231E000590029304930393019316
:102CE000029B059A93421ED1002E0FD0039B002B0E
:102CF00000D080E0E36AA06A5B6C9847049B002BDD
:102D000000D07EE0E36AA06A5B6C9847069AE36AAB
:102D1000002A00D17BE0C0331D68019A33003900DE
:102D2000A06AA84715E0029B099A9B009D58002DB8
:102D300051D003231D424ED1FF226B681340A62BB6
:102D40000FD1A53B1E4206D0324A29002000FFF7D2
:102D500007F90BB0F0BD1E430395029B01330293AC
:102D6000BEE7A72B07D1A53B1E4201D02A4AECE7BC
:102D70001E430495F1E7A82B2DD1EA68002A10D054
:102D8000A53B1A420DD1FF2153680B40AA2B06D157
:102D90009268A9682000FFF73FFF0137DDE7AC2B01
:102DA00013D00F23A9680B40022B01D01B4ACCE79C
:102DB000E36A0909DB6BA06A9847E9682000FFF71E
:102DC00085FB019B01330193C7E706222900200000
:102DD000FFF74AFFE1E7002E01D0114AB5E7019B5A
:102DE000002B01D00F4AB0E729002000FFF76EFB4F
:102DF0000137019EB1E7039B20009968FFF766FB4E
:102E00007CE7049B20009968FFF760FB7EE7BC33FA
:102E100082E7C0460E260310252603103D26031028
:102E20005E2603107926031070B50E004179040068
:102E30001300012903D13200FEF769FF7061E36AD4
:102E4000A06ADB6C9847002375691A0029002000EE
:102E5000FEF77DFEE36AE98ADB6BA06A9847F168BA
:102E6000002906D003230B4003D10A79A32A00D1FD
:102E70001900200002230022FFF720FFE88A70BD1E
:102E800010B5436A04005A8BFFF7CEFF0100200003
:102E9000FEF78DFF10BD002310B51A008968FFF7FB
:102EA0000DFF10BD70B50D000400C968FFF70EFBE3
:102EB000A9682000FFF70AFB70BD0B7970B504000C
:102EC0000D00342B11D18968FFF700FBED68AD6868
:102ED000002D10D1E36A0E215B6BA06A9847E36A6C
:102EE0000422A0331B68022118E0C36A0E215B6B29
:102EF000806A9847EBE70326354224D12B799A2B39
:102F00000FD1E36A0E215B6BA06A9847A96800297C
:102F100010D10422E36A0231A0331B68A06A9847EB
:102F200070BD9B2B0FD1A9682000FFF7CFFAEB688B
:102F30009968ECE72000FFF7C9FAE36A0422A0339E
:102F40001B683100EAE729002000FFF7BFFAC6E757
:102F500010B504008968FFF7B9FAE36A00211B6D18
:102F6000A06A984710BD0000F0B58D6885B00400D8
:102F70001700002D09D1002A22D002222900C36A9D
:102F8000A0331B68A06A98471AE003231D4200D0B3
:102F900090E0FF266B683340372B13D1002A06D010
:102FA000C36A0222A0331B680121806A984720006F
:102FB0002900FFF78BFAE36AA06AA4331B689847DD
:102FC00005B0F0BD9F2B75D1E86843683340A12B55
:102FD0005FD1A221083003AA2EF02EFEA96801902D
:102FE000002927D00323194224D14B681E40372ED5
:102FF00020D1002F06D0E36A411CA0331B680222B7
:10300000A06A9847A9682000FFF760FAE36AA06AFF
:10301000A4331B689847012300260093019B9E421E
:103020000DD1009B002BCBD1E36A711CA0331B6830
:103030000322A7E72000FFF749FA0023ECE7039AF1
:10304000B300995800231F00994209D00333194255
:1030500006D14F68FC331F40373F7A427A41170050
:103060002000FFF733FA009B002B0ED0002F05D174
:10307000154A29002000FEF773FFA1E7E36AA06A62
:10308000A4331B6898470136C8E7002FFBD00F4ACE
:10309000EFE7AB68002B07D00322134204D15B6833
:1030A00001321E40372E00D0052229002000FFF7F4
:1030B000DBFD85E729002000FFF708FAE36A032219
:1030C000A0331B6801215DE7412203105E2203103B
:1030D00010B50122FFF748FF10BDF7B50025040029
:1030E0001700A94202D0FFF7F1F90135002F07D0F0
:1030F00000267B681B0A0193019B9E4208DBED18AA
:10310000E36A2900A0331B680022A06A9847F7BD34
:10311000B300FB1899682000FFF7D8F90136EBE7F8
:1031200010B50A000021FFF7D8FF10BDF7B50E005B
:1031300089680400FFF7CAF9F568002D60D06B6854
:10314000DAB28E2A26D0350001230C350093636A4B
:103150001A78B368072A54D108321A40022A50D18B
:103160001A099A2A4DD129680A79302A49D18A68E0
:10317000002A46D10A212000FEF708FE0121626ADA
:10318000D36A528D002A09D1464A29682000FEF7E9
:10319000E7FE35E01B0A00930835D8E75878084267
:1031A00010D059682000FEF7F1FD009AE36A022A68
:1031B0000BD8BC331E68002302211A00A06AB04756
:1031C00001261AE0013A0833DCE7FF22686841680B
:1031D00011403229EDD1AE6871680A40302AE8D139
:1031E00081689B6C09092F3AA06A9847B16800234F
:1031F00001222000FFF762FD0326009BB34229D87D
:10320000F7BD0F2200261A40022AF6D15022FF32C3
:103210001B099342F1D1FF212B685A680A40302ADA
:10322000EBD19A68B242E8D09307E6D153680B40DD
:103230002F2BE2D1E36A3200BC331F683100330028
:10324000A06AB8472B68320099682000FFF78CFE0F
:103250000136D2E7009A731C711C0193B3008A42B5
:103260001AD9FF20E9584A680240322A14D1EA18D4
:1032700057687A680240302A0ED18968E36A0909E2
:103280009B6C0022A06A984700230122B9682000A5
:10329000FFF714FD019EDBE7E9582000FFF716F960
:1032A0000196F7E79622031070B50D00C968040077
:1032B000FFF70CF9AB6802211B09DBB2322B01D0FE
:1032C0003E3BD9B2E26AA06A98321368984770BD53
:1032D000F8B54B680C00896805001F0A0026FFF747
:1032E000F5F80C340236B74200DCF8BD61682800FE
:1032F000FFF7ECF82368A86A1909EB6A23399C33B5
:10330000C9B21B6898470834ECE7F7B54B680F0063
:103310001E0089681B0A050001930124FFF7D6F8F7
:103320000D3EF6B2019B9C4200DBF7BDA300FB18EB
:1033300099682800FFF7CAF8EB6A31009C331B68D4
:10334000A86A98470134EDE74B68F7B50D00896826
:103350001E0A0400FFF7BAF800230193032E03D9D5
:10336000236901930133236101270C357B1C9E42A5
:1033700021DC032E1EDD2569A06A6B1C2361E36A34
:103380002900DB6E9847E36A0199DB6AA06A9847D7
:10339000E36A0121DB68A06A9847E36AA06A5B6E72
:1033A0009847E36AA06A1B6E9847E36A2900DB6AC4
:1033B000A06A9847F7BD696820000237FFF786F8D2
:1033C000BE4207DDE36AA06A9B6D9847E36AA06A84
:1033D0009B6E98470F222968E36A0A400E2A14D18F
:1033E0000909CAB20621242A01D0333AD1B29C334A
:1033F0001B68A06A9847BE4205DDE36A019A5B6FCD
:103400000021A06A98470835B0E7FF204A680240CB
:10341000852A03D19C331B683221EAE78A689C33F2
:103420001B680721002AE4D03321E2E710B504002D
:103430008968FFF74BF8E36A032198331B68A06A99
:10344000984710BDF7B54A680F00D3B21E3B5942EA
:103450004B41040000250669DBB20193731C036134
:10346000130A0093009B9D4205DBE36A3100DB6A8F
:10347000A06A9847F7BDAB00FB1899682000FFF7DA
:1034800025F8009B0135AB42ECDDE36A32005B6F4F
:103490000199A06A9847E5E70F2370B50B40040037
:1034A000022B11D00B79492B01D04F2B02D10123D4
:1034B000A37170BD4A2BFCD0502BFAD08D68482BDD
:1034C0000DD10E69002E0CD1A379002BF1D1E38A26
:1034D000002BEED01D4A2000FEF742FDE9E7CE6842
:1034E000F0E7A379002B28D0A38A01339BB2A382F3
:1034F000012B0FD1E18AE36A00291AD0A0331B689F
:103500000022A06A9847E36A0222A0331B680021C8
:10351000A06A984731002000FEF7D8FFE36AA06A4E
:103520002909DB6B9847E36AA06AA4331B689847B4
:10353000BFE75B6CA06A9847E5E7E38A3100013397
:10354000E3822000FEF7C2FFB3E7C046EC2203107F
:10355000F7B504000F000569CE686B1C0193AB1C26
:10356000036100222B00B168FFF746F9B96820001B
:10357000FEF7ACFFE36A691CA06ADB6E9847E36A5A
:103580002900A06ADB6A98470121E36AA06ADB6828
:1035900049429847F1682000FEF798FFE36A0199D5
:1035A000DB6AA06A9847F7BDF0B585B004000191C9
:1035B00002920393002904D10399FEF787FF05B017
:1035C000F0BD07697B1C0361029B1D68002D28D09C
:1035D00003262E4025D12B797B2B22D1A968FEF71B
:1035E00075FF320039002000FEF774FA3200E968F6
:1035F0002000FEF7B5FF029A01990432039B2000D8
:103600000139FFF7D1FFE36A39000433DB6FA06AA9
:10361000984720000321FEF755FA2000FEF76AFACA
:10362000CDE729002000FEF751FF200000223900DD
:10363000FEF750FAE36AA06A1B6E9847DBE737B5DE
:10364000050008000C0001AA7A2108302EF0F4FAD7
:10365000E3680100019A2800FFF7A6FF37BD0000CC
:10366000F0B504000F001E00056987B06B1C0593C0
:10367000AB1C0361049229000122FEF72BFA3900EA
:103680002000FEF723FFE36A002294331B68691CC5
:10369000A06A9847E36A2900DB6AA06A9847E36A50
:1036A000A06AD0331B689847236937000193013320
:1036B000236100230093009B049A934216DB2000B1
:1036C000FEF718FAE36AA06AD4331B689847E36AE6
:1036D0000599DB6AA06A98470C992000FEF7F6FE70
:1036E000E36A0199DB6AA06A984753E03B68039359
:1036F0002369029301332361039B9E68002E4BD103
:10370000009B049A013393423CD10025E36AA06AEE
:103710001B6E98472E00039B2000D968FEF7D6FE4B
:10372000002D19D0E36A0E215B6BA06A9847E36A0B
:103730003100DB6AA06A9847E36A0E215B6BA06ADE
:10374000984729002000FEF732FB20002900FEF7F1
:103750004AFB2000FEF7CEF9E36A012294331B688E
:103760000199A06A9847E36A0299DB6AA06A9847C0
:10377000E36A0121DB68A06A9847009B04370133A4
:10378000009398E720001C4A3968FEF7E9FB200007
:10379000FEF7B0F907B0F0BD032300251E4208D1A3
:1037A000FF21736832000B40762B02D1D568B668D2
:1037B0002D09E36AA06A9B6D984731002000FEF74F
:1037C00085FEE36A08219C331B68A06A9847E36A78
:1037D000029A1B6F0021A06A9847002D95D02900FE
:1037E0002000FEF7E4FA26690222731C23613100EF
:1037F0002000FEF76FF98EE79B260310F0B50569F0
:1038000085B003936B1C17000E0003610222290090
:103810000400FEF75FF9002F21D1E36A0321DB6882
:10382000A06A984731002000FEF750FE0321E36AAA
:103830004942DB68A06A9847E36AA06A5B6B0E2185
:103840009847E36A2900DB6AA06A98470B99200031
:10385000FEF73CFE2000FEF74DF905B0F0BD0A9BD7
:103860003A0000933100039B2000FFF7F9FEE3E7E5
:103870007FB5CD6806002B790C00782B09D100228A
:10388000AB68009201931300A1683000FFF7B6FF08
:103890007FBD742B17D1280003AA772108302EF0A2
:1038A000CBF92B690200002B07D1EB680093A168CC
:1038B000039B3000FFF7D4FEEAE79B680193EB68B7
:1038C0000093039BE0E7080003AA0C3077212EF059
:1038D000B3F900230200E9E7F0B50D000F21AB6852
:1038E0008FB004000B40022B00D00AE1EB68002BE4
:1038F00000D106E10326334200D002E1FF205A68DE
:1039000002402C2A00D0FCE09A681140022900D025
:10391000F7E012097C2A00D0F3E0DA685368184017
:10392000302800D0EDE09368A2310DAA0CA80C93CA
:103930002EF082F9431E022B00D9E2E00D9B0128F4
:1039400000D0CDE0019606001F68B30704D133799B
:10395000A63B022B00D8D4E0002F06D0BB0704D131
:103960003B79A63B022B00D8CBE0AB6806932B69D2
:1039700007936B690393238B0893638B0993E38B02
:103980000A93236900935D1C023304936B461B88E2
:1039900065832383A38BE383009B03330593009B01
:1039A0000433236101233B400293FB430B93029BAF
:1039B000002B03D139002000FEF788FD31002000E4
:1039C000FEF784FDE36A0599DB6EA06A9847E36A17
:1039D0000499DB6AA06A9847E36AA06A9B6D9847DE
:1039E000002206992000FEF7BBFD07992000FEF794
:1039F0006DFDE36A2900DB6AA06A984701992000FF
:103A0000FEF764FDE36A0E219C331B68A06A9847A9
:103A1000E36A0599DB6AA06A9847029AE36A002A7A
:103A200000D0C4E0DB6DA06A9847E36AA06A5B6ED1
:103A30009847E36A019A9C331B680021002A00DA48
:103A40000121A06A9847E36A049A1B6F0121A06ACA
:103A500098476B461B8C002523836B469B8C6383A6
:103A60006B461B8DE383039BAB421FD0E36AA06AC6
:103A70001B6E9847029BAB4203D1E36AA06A1B6EA0
:103A8000984703992000FEF721FD2569A06A6B1C69
:103A90002361E36A2900DB6E984701210B9BA06A32
:103AA0000B401900E36A0131DB689847E36A00992B
:103AB000DB6AA06A9847E36AA06A1B6E9847029B7C
:103AC000002B03D1E36AA06A1B6E9847039B002B6F
:103AD00004D02900E36ADB6AA06A98470FB0F0BD02
:103AE0001E685F68022805D103230193002E00D1D0
:103AF00032E72AE79B680193DB0702D5019B5B1045
:103B0000F4D1238B26690093638B771C0193E38B9D
:103B100020000293B31C0393A38B6783E383284B9A
:103B200033432383F31C2361E968FEF7CFFCE36A88
:103B3000012188331B68A06A9847E36A3900DB6A71
:103B4000A06A9847E36AB11C8C331B68A06A984747
:103B50000022A9682000FEF703FD20002969FEF776
:103B6000B5FCE36AA06A9B689847002804D1E36A21
:103B70003900DB6EA06A9847E36AB11CDB6AA06A71
:103B80009847E36AA06A90331B6898476B461B8886
:103B9000696923836B469B88200063836B461B897E
:103BA000E383FEF793FCE36A3100DB6A94E7A06AE3
:103BB0009B6D984739002000FEF788FC39E7C04626
:103BC0000080FFFFF0B5038B85B00193438B06693E
:103BD0000293C38B771C0393B31C0361838B040094
:103BE00006834783C38388680D002DF0ADFF00284E
:103BF00021D12369009301332361A8682DF044FF8C
:103C0000002804D1E36A3900DB6EA06A9847E36AB2
:103C10000099DB6AA06A9847E9682000FEF756FC25
:103C2000E36A3900DB6AA06A9847009B0122A96811
:103C30002000FEF7E1FD6B469B88296923836B46D4
:103C40001B89200063836B469B89E383FEF73EFC60
:103C5000E36A3100DB6AA06A984705B0F0BDF0B5B1
:103C6000066987B0731C0361040088680D002DF09D
:103C70006BFF021E26D1276920007B1C2361A968E7
:103C80003B00FEF7B9FD2000E968FEF71FFCA868BD
:103C90002DF0FAFE002826D12B69002B02D16B698A
:103CA000002B0AD0E36AA06A9B689847002804D1D9
:103CB000E36A3100DB6EA06A9847E36A3900DB6A89
:103CC000A06A9847280005AA712110302DF0B4FF92
:103CD000002303900193019B039A93420AD16969DF
:103CE0002000FEF7F3FBE36A3100DB6AA06A984725
:103CF00007B0F0BD019B059A9B009F58B8682DF056
:103D000023FF021E21D12369200002930133236186
:103D1000B968029BFEF770FD2000F968FEF7D6FB3C
:103D2000B8682DF0B1FE0028DDD1E36AA06A9B6877
:103D30009847002804D1E36A3100DB6EA06A9847F7
:103D4000E36A0299DB6AA06A9847019B0133C1E7E5
:103D5000F0B587B00400019102920393002904D1C9
:103D60000399FEF7B3FB07B0F0BD05696B1C059323
:103D7000AB1C00932B1D0361029BEF1C1E68002EE1
:103D800000D1EDE003233340049300D0E8E0337921
:103D90007B2B00D0E4E0B168FEF798FBE36AA06AF1
:103DA0009B6D9847A8212000FDF78EFF049AF168CB
:103DB0002000FEF7D5FB022229002000FDF78AFE35
:103DC000E36AA06ADB6803219847029A01990432EA
:103DD000039B20000139FFF7BBFF0321E36AA06AC0
:103DE000DB6849429847E36A0E21A06A5B6B9847FB
:103DF000E36AA06A5B6E9847E36A691CA06ADB6E9F
:103E00009847E36A2900A06ADB6A9847E36AA06AD8
:103E10009B6D9847E36A0122A06A9B69212198471C
:103E2000E36AA06A9C331B6808219847E36A009AFA
:103E30000021A06A1B6F9847E36AA06A9B6D9847B0
:103E4000E36AA06A9B6E9847E36AA06A5B6E984734
:103E5000E36A0022A921A06A9B6C9847E36AA06AE2
:103E60009B6E9847E36AA06A9B6E9847E36AA06AD4
:103E70009B6D9847E36A00220A21A06A5B6D984710
:103E8000E36AA06A5B6E9847E36AA06A5B6B0E21E7
:103E90009847E36A0321C0331D680023A06A1A0013
:103EA000A8472000FDF7F8FEE36A3A000021A06A67
:103EB0001B6F9847E36AA06A1B6E9847E36AA06A83
:103EC0005B6B0E219847E36A3900A06ADB6E984766
:103ED000E36AA06ADB6802219847E36A0099A06A56
:103EE000DB6A9847E36AA06A9B6E9847E36AA06A18
:103EF0009B6E9847E36A0599A06ADB6A9847E36A74
:103F00000022A06A9B6CA9219847E36A0E21A06A4F
:103F10005B6B9847E36AA06A9B6D9847E36AA06A67
:103F20009B6D9847E36A0321C0331D680023A06A94
:103F30001A00A8472000FDF7AFFEE36AA06A1B6ED7
:103F400098470121E36AA06ADB6849429847E36A1F
:103F5000A06ADB6A390098472000FDF7CBFD02E735
:103F600031002000FEF7B2FAE36AA06A9B6D984721
:103F70002000A821FDF7A8FEE36AA06A1B6E9847FF
:103F800019E7F0B58D6889B02B790400032B09D1AE
:103F90002900FDF71DFF0123AA69118B0B43138331
:103FA00009B0F0BD162B00D0ADE0EB6806691B0927
:103FB0000193331D0361E968FEF788FAE36AA06A9A
:103FC0009B6C0022AA219847E36AA06AC0331F684D
:103FD00000231A001900B84701992000FDF7E7FEF9
:103FE000238B27690293638B791C0393E38BA06A6D
:103FF00004937B1C0593BB1C23616B469B8A278320
:104000006383A38BE383E36ADB6A98470122200082
:10401000B118FDF75FFD01992000FDF7B7FE200004
:10402000AC21FDF751FEA96820000022FEF798FAA6
:10403000E36A00229433B11CA06A1B689847E36AC4
:10404000711CA06ADB6A9847E36AA06AD0331B68D8
:104050009847E36AA06A9B6D98476A21E36A012248
:10406000A06A9B69FF319847E36AA06A9C331B688A
:1040700008219847E36AF21C0021A06A1B6F984749
:10408000E36AA06A1B6E9847E36A01229433310009
:10409000A06A1B689847E36AF11CA06ADB6A98472C
:1040A000E36A0121DB68A06A98472000FDF722FD42
:1040B000E36AA06AD4331B689847E36AB11CDB6AE1
:1040C000A06A984729692000FEF700FAE36A791C84
:1040D000A06ADB6E98476B461B89310023836B46D1
:1040E0009B89A06A63836B461B8AE383E36ADB6A6E
:1040F000984769692000FEF7E9F9E36A3900DB6A4D
:10410000A06A98474CE7280007AA7A2108302DF0CA
:1041100093FDEB680100079A2000FFF719FE3FE7C7
:1041200070B58D680400002D06D12900C36AC8331C
:104130001B68A06A984770BDAB070ED12B795E2B28
:104140000BD1A968FEF7C2F9E9682000FEF7BEF9B5
:10415000E36A0221C8331B68EBE729002000FEF761
:10416000B5F9E36A0121C8331B68E2E710B5040022
:104170008968FEF7ABF9E36AA06A1B6E984710BD29
:10418000F7B505000C000F232340022B04D12109B1
:104190002800FDF728FEF7BD002C6BD003231C423E
:1041A00068D1FF26636833402C2B38D1A1682800E2
:1041B000FEF78CF9E768002F5CD003223A4059D112
:1041C00079683B000E408E2E0AD116000B0A01932F
:1041D000019B013B9E4210DB019B01339B00DB599D
:1041E0001A79312A11D199682800FEF76FF9EB6A24
:1041F00002211B6DA86A9847CDE7B300FB189968A8
:104200002800FEF763F90136E2E7322A32D19968D5
:10421000EB6A09095B6D303AA86A9847BBE72D2B1A
:1042200028D1A468002C25D0E768002F1CD02A3B99
:104230001F4219D17B681E40952E01D1A468A2E7C8
:10424000962E0FD1A16828001E0A0024FFF798FFC0
:10425000B442A0DAA300FB1899682800FFF790FF8A
:104260000134F5E7AC2E05D0A1682800FFF788FFE0
:10427000E46888E7024A21002800FDF771FE8AE71A
:1042800029220310F7B5CD6804000E00002D2BD1B4
:104290000379002B17D0436A1D78002D13D1CF214D
:1042A000FDF774FDB1682000FEF710F9E36A2A00FB
:1042B000BC331E6801212B00A06AB047E36AA06AE4
:1042C0001B6E98470FE0B1688B0707D00F230B4098
:1042D000022B08D12000FEF7F9F8EFE70029F9D00A
:1042E0000B793A2BF6D1F7BD032215424FD16B68FB
:1042F000D9B25B290FD1ED68002D48D1406A03780F
:10430000072BF0D1B16808330B40022BEBD1090920
:1043100013F09DFCE7E7562913D10122B168FEF79F
:104320001FF9E9682000FEF7D1F8A968E36A0909D6
:104330003D399C33C9B21B68A06A98470222B16814
:1043400064E0572923D11B0A5F1E01339B00595992
:10435000FEF7BCF8002F03DDE36AA06A9B6D984767
:10436000B16800222000FEF7FBF80026BE42BADA50
:104370000136B74203DDE36AA06A9B6D9847B3003C
:10438000EB18002259682000FEF7EAF8EEE7032058
:1043900005423FD1FF216B6801930B40062B39D1B9
:1043A000B768002F36D0074234D17B681A000A4024
:1043B000062A2FD1019A1B0A120A93422AD1022BF4
:1043C00028D1BB68002B05D0034203D15B6819409C
:1043D00022291FD0FB68002B05D09A0703D15B6808
:1043E000DBB2222B16D0A9682000FEF76FF8E9682F
:1043F0002000FEF76BF8E36AA06A5B6E9847002224
:10440000B9682000FEF7ACF80022F9682000FEF73A
:10441000A7F868E729002000FEF758F800228EE789
:10442000F0B50400080089B00491083006AA4221C2
:104430002DF002FC0027636A05905D8B0197059BB8
:104440009F420AD1049BD9680B79032B45D12A00DE
:104450002000FDF786FC05004DE0069ABB009B5846
:104460006C21180007AA083002932DF0E5FB079B8A
:10447000039019680A09732A61D1022807D0324AC9
:104480002000FDF76DFD019B0133019323E0596886
:104490000B09412B4DD02D4A93424CD0C23293424E
:1044A0004BD0A93AFF3A9342E9D10425EBE7079AAA
:1044B000B3009958E36A09095B6D0022A06A984726
:1044C0000136039B9E42F2D3029BD968002902D099
:1044D0002000FDF7FBFF0137B1E7442B18D18E68B0
:1044E0002A0031002000FDF73CFC01230500B269E1
:1044F000118B0B43138300230293029A019BFB1A37
:104500009A420AD329002000FDF751FC09B0F0BD02
:104510002A002000FEF788FC9DE7E36A0121BC33F6
:104520001B68A06A1E0000231A00B047029B0133DB
:10453000E2E70125A7E70225A5E70325A3E7200079
:10454000FDF7C4FF0126BCE7CE2203108202000063
:10455000F8B505000F0000244B681E0AB4420FDABC
:10456000A300FB1899682800FDF7B0FFAB68002B8B
:1045700007D028000234A4000C30E159FDF7E5FC17
:10458000F8BD0134EAE710B50400FFF7E1FFE36A84
:1045900022219C331B68A06A984710BD70B58D68B6
:1045A0000400002D07D101222900C36AA0331B6833
:1045B000A06A984730E0032215423CD1FF23696886
:1045C0001940922937D1EE68002E26D0164224D108
:1045D00071680B40952B09D1A9682000FDF776FF83
:1045E0000122E36A1100A0331B68E1E7962B0ED18C
:1045F000A968FDF76BFF31002000FFF7A9FF716884
:10460000E36A090AA03301311B680122D0E7AC2B11
:1046100003D12900FEF728FB70BDA9682000FDF733
:1046200055FFE9682000FDF751FFE36A0122A0333E
:104630001B680221BCE72900CFE7896810B50A1E74
:1046400009D0CC68002C13D00322224010D123794A
:10465000952B03D18968FEF740FD08E0962B01D128
:104660002200F7E7AC2B03D10622FEF7FDFA10BDBE
:104670000A000021EFE70000436A10B51B78040030
:10468000072B05D0022B03D0054AFDF769FC10BDAE
:104690002000FEF74BFD2000FDF7FEFAF7E7C046CD
:1046A0007D220310F8B5DE23174A5B00D6580400BC
:1046B0000F00002E26D1056901226B1C0361896859
:1046C0002B00FEF799F8E36A1F219B690122A06A7B
:1046D0009847F96800290AD02000FDF7F7FEE36A41
:1046E0003200BC331F6801213300A06AB847E36A77
:1046F0000121C8331B68A06A9847E36A2900DB6A76
:10470000A06A9847F8BDC04698E00320436A10B5F8
:104710001B780400072B03D00A4AFDF721FC10BDCB
:10472000896800290AD1C36A0E315B6B806A984799
:10473000E36AA06AC4331B689847F0E7FDF7C6FE3A
:10474000F6E7C046A8240310F0B5437985B004000D
:104750000D00012B0AD10B790093102B08D0436A6E
:104760001B78002B04D1214AFDF7FAFB05B0F0BD00
:10477000280003AA6D2108302DF05EFA0027019071
:10478000019BBB42F2D0039ABB009958606A002299
:10479000090913F05CFA009A06000378102A0FD179
:1047A0000E3A9343124A17D1022303704168606A9C
:1047B00013F06EFA002801D0022303700137DFE7FF
:1047C000002B0ED1013303700100606A13F069FA07
:1047D0003378084A012BF1D129002000FDF7C0FBF6
:1047E000ECE7052BEAD0044AF6E7C046082403109C
:1047F0002D2403104C2403106A240310F0B5140078
:1048000095B004900D003822002106A82BF024FB5F
:1048100006AB1C71012306AA5B4213835383B74A7C
:10482000C2330695FF33D35C049A0021126806A8B0
:10483000FDF76DFA009000F052FEB14B0E9C119303
:104840000023029010900193002C43D10E9C002C69
:1048500002D0089B002B4FD000250199029800F050
:1048600043FE0E9C002C00D024E1089B0193002BFA
:1048700000D04BE1029800F03FFE002D02D028004E
:1048800003F096FF1298002801D001F08AFA0498EC
:104890002DF0BAF9009B1C69009B9D68180013F06D
:1048A000BDF90095002DF7D10898002800D13BE113
:1048B00008F004FAFEF77EF8638D9D4215D2E36A94
:1048C000E90059180B78012B02D1200013F0E9F907
:1048D0000135F1E7089D002DB8D1638B012221003D
:1048E00006A8042BE6D1FDF74FFB0A9B019A9A42DA
:1048F00000D20193A468A7E70421228B0A421BD0AF
:10490000608D411EC900002816D00226E26A5218A6
:104910005578354233D0002B0ED0598817008C467D
:1049200059681E7803915D7803CF03C363465380B3
:10493000039B16705570536000256584638D9C46FB
:104940009D4224DB0022012094454ED16668002E52
:1049500013D00022738D0593130005998A4253DB0F
:10496000002B0AD0002101258C456AD1A28B9BB275
:104970009A18A283628C9B186384A46867E7002B53
:1049800002D1012D00D1130001380839BBE7E36AD9
:10499000EE009E192378012B04D173680A2B08D1ED
:1049A0000135CBE7012B04D93378012B01D1013339
:1049B00033703378022B06D1638B032B0FD0102278
:1049C000238B134323833378032B03D00122737883
:1049D0001342E5D0638C5A1C62847380E0E77068F0
:1049E00008F014F90128EEDCE9E7E16AD300CB18FE
:1049F0001978042906D15978014203D1618C598074
:104A00000131618401329FE7F16AD50049190391B0
:104A1000097800200439012910D901329DE7E76A9D
:104A2000C10079180F78052F07D1039D6F683D00ED
:104A30004F68BD4201D14B80013301308445EED136
:104A4000EBE7E06ACA0082181078052802D1507896
:104A5000284202D05088C0185080013184E7023BC0
:104A6000012B22D8002D05D1019A0AA908A803F02C
:104A700081FE0500234B109511930222210006A808
:104A8000FDF798FF089B0393002B04D1032221001C
:104A900006A8FDF78FFF089B0393002B2CD104225F
:104AA000210006A8FDF786FF26E0029B1093144B19
:104AB0001193E2E7089B0393002B00D0D5E6638BAC
:104AC000042BCCD1129B0393002B03D1019801F04E
:104AD00053F91290002310930B4B0322210006A8D8
:104AE0001393FDF751FA089B0393002B04D1042282
:104AF000210006A8FDF748FAA468B3E698E0032071
:104B0000E4260310F02B03104C2803100F9B09A878
:104B1000D968FDF71AFA0F9B099A0193DB8A069967
:104B200008980AF0C7F9A5E6009A2000110000F0E5
:104B300061FD15B0F0BDC0468079431E9841C0B2FA
:104B400070474379012B09D08368C918C368816015
:104B50009A8C914200DD998400238371704704216F
:104B600010B54942FFF7EDFF10BD10B50421FFF766
:104B7000E8FF10BD032110B54942FFF7E2FF10BD69
:104B8000030040791A6A032803D8180052181A62E1
:104B90007047186B80188A181A62F9E710B50C0074
:104BA0000121FFF7EDFF047010BD030010B540793F
:104BB0009A6A032803D8180052189A6210BD586ADE
:104BC0001C6B10188A1820189A62F7E710B50C00B1
:104BD0000121FFF7EAFF047010BD70B50400150055
:104BE000FFF7AFFF01212000FFF7DFFF057070BD69
:104BF00010B553220121FFF7F0FF10BD10B554226C
:104C00000121FFF7EAFF10BD10B557220121FFF780
:104C1000E4FF10BD10B558220221FFF7DEFF10BDE2
:104C2000012110B559224942FFF7D7FF10BD10B539
:104C30005A220021FFF7D1FF10BD10B55B220021E1
:104C4000FFF7CBFF10BD012110B55D224942FFF7F0
:104C5000C4FF10BD10B55E22002901D003215F22E0
:104C6000FFF7BBFF10BD0A0010B5303AD2B20021E9
:104C7000FFF7B3FF10BD022110B562224942FFF7D2
:104C8000ACFF10BD012110B5632249420400FFF7BB
:104C9000A4FF0123A37110BD0A0010B56432D2B283
:104CA0004942FFF79AFF10BD0A0010B504006732B1
:104CB000D2B24942FFF791FF0123E268118B0B4307
:104CC000138310BD70B5050016001C00FFF739FFF7
:104CD00028000321FFF769FF4470240A06708470DE
:104CE00070BD10B50B00012A07D0022A0BD101219B
:104CF00067324942FFF771FF10BD11001B32D2B27B
:104D0000FFF7E0FFF8E701214942F7E710B50B0094
:104D100010220121FFF7D6FF10BD10B511320B0094
:104D2000D2B20121FFF7CEFF10BD10B501240B0058
:104D30005100611A541EA2411432FFF7C3FF10BD87
:104D40000B00012110B51632D2B24942FFF7BAFF6B
:104D500010BD10B519320B00D2B20021FFF7B2FF1F
:104D600010BD0000F8B506001F001500FFF7E9FEB2
:104D700073790024032B06D9B36A074CBF00E41AE9
:104D8000F369FB58E41830000321FFF70EFF44706D
:104D9000241205708470F8BDFD7F000010B50B0073
:104DA00042220021FFF7DEFF10BDF8B506001F000C
:104DB0001500FFF7C6FE73790024032B06D9B36AEA
:104DC000033CE41AF369BF00FB58E41830000321E8
:104DD000FFF7EBFE4470240A05708470F8BD10B52F
:104DE0000B005442544147326100D2B2FFF7DDFF5D
:104DF00010BD10B50B004B220121FFF7D6FF10BDEF
:104E000010B50B004A220021FFF7CFFF10BD0000B4
:104E1000DE23F7B5224A5B00D35805000191022B2F
:104E20000DD84769B9420AD9836A0269CF1B9C1A17
:104E30003B00234304D1AB6A2B61019B6B61F7BD3F
:104E4000062F01D90F2C18D900941F2C01D91F232C
:104E50000093009B00269C4203D83E00032F00D9FC
:104E6000032601212800FFF78BFE009A73011343EC
:104E70000370009BBF1BE41ADAE70A4B3E009F4217
:104E800000D91E0002212800FFF77AFE70223309A4
:104E90001340F03A22431343037046700094E8E74E
:104EA00098E00320FF07000070B504000D0000210A
:104EB000FFF747FE6379012B05D0032B03D8A26AC5
:104EC000E369AD00EA5070BD70B50D000400111E1D
:104ED00005D12B0013222000FFF7F4FE70BD022A3B
:104EE00004D1FFF785FE2000FFF7A1FE02212B0071
:104EF00018224942EFE710B50400002905D15522D8
:104F000001392000FFF769FE10BD022904D1FFF727
:104F10006FFE2000FFF791FE032156224942F0E781
:104F2000130010B54322002900D144220121494237
:104F3000FFF718FF10BD130010B54522002900D15E
:104F4000462201214942FFF70DFF10BDF8B50500CB
:104F50000C00171E184E1BD180231B02194207D1CB
:104F600023004222334000212800FFF7FBFEF8BD5A
:104F70005921FFF72BFE28005921FFF727FE2800B3
:104F80005921FFF723FE59212800FFF71FFEE7E70D
:104F9000330040220B400021FFF7E4FE80231B0278
:104FA0001C4021004C1EA141C9013943C9B228004F
:104FB000FFF70CFEDBE7C046FF7FFFFF70B5050083
:104FC000322913D00024332901D101342C39293955
:104FD000CAB2012128004942FFF7FFFD002C04D08E
:104FE000D32200212800FFF7F8FD70BD012406211F
:104FF000EDE770B543790400012B26D00025002190
:10500000FFF7CCFD626B236AA5639B1A6363E068BC
:10501000438D9D421AD3A38FE3876379032B24D159
:10502000A36A206AE3626062C01804F04FFAE36882
:105030002063988BDB8BC018A38FC018A31CDB8F59
:10504000C018800004F042FA606470BDC36AEA00D0
:105050009B181A78042A06D199782000FFF79EFD44
:10506000A36B0133A3630135D1E7042BEDD1038B8F
:10507000626C216B006900F083FAE6E70B001033E5
:10508000F7B505000C003F2B06D80A00803AD2B2D3
:105090000121FFF7A2FDF7BD01212222FFF79DFDAF
:1050A0006B46053319007F27E0B202005E1E3A40CE
:1050B000E4113270621C012A18D84022013417D141
:1050C000104202D1023B1F701E006C462800891B53
:1050D0008025FFF76AFD0023A21B04326D42934234
:1050E0000CD1227901AB9B1BC254D4E73300DBE720
:1050F0001042EAD00022023B1A70E5E7F15C294336
:10510000C1540133EBE7F7B51C000700FFF765FD5D
:105110006B465D1D29007F222300013D13402B704B
:10512000E409F9D1491B6E463800FFF73EFD8021A6
:10513000731B043349429C4204D1327901AB5D1B9D
:105140004255F7BD2A5D0A4302550134F3E7F8B52D
:105150001E00C3689D8BDB8BED18C38FED18831C7D
:10516000DC8F671CDF8763194479042C02D1456CFE
:105170009C006651FFF7C7FFF8BD1A4310B50B69D5
:10518000002A04D101213232FFF7E1FF10BD0121D5
:1051900033224942F8E770B5040008000499D5B2FB
:1051A0000B430BD10121891A202203692000FFF74C
:1051B000CEFF29002000FFF709FD70BDD143036930
:1051C0002122F3E710B51100002B07D10F2A05D8D3
:1051D000503AD2B20121FFF700FD10BD2433DAB2FC
:1051E0000B000121FFF78FFFF7E710B51100002B2F
:1051F00008D10F2A06D80121403AD2B24942FFF71E
:10520000ECFC10BD2633DAB20B0001214942FFF756
:105210007AFFF6E7110010B52833DAB20B0000214F
:10522000FFF771FF10BD10B501240B002100022A09
:1052300000D0E11A2A32D2B2FFF765FF10BD10B5D7
:10524000130003290BD004290CD000210222CB1813
:105250009B001343C9432F22FFF755FF10BD0021C8
:105260000A00F4E70121FBE710B50B0030220139F9
:10527000FFF749FF10BD10B513020B438918312207
:10528000FFF741FF10BD70B5049C059E25021D432C
:105290006400002E08D00132E418D2B202342B0090
:1052A000091BFFF730FF70BDD2B2E418F7E707B56E
:1052B000019300920B0034220021FFF7E4FF07BDA9
:1052C00007B501930B000121009249423622FFF7F6
:1052D000DAFF07BD10B5C268938BD28B9A18838F03
:1052E0005C1C9B1842798487042A02D1446C9A0082
:1052F000115123220121FFF706FF10BD10B5FFF762
:10530000E9FF10BD10B50C2903D10549FFF7E2FFF5
:1053100010BD4331CAB20121FFF75FFCF8E7C04678
:10532000745E031070B504000D000E21FFF7EAFF54
:1053300029002000FFF7B8FD5C2220000221FFF7C2
:105340004CFC042120004942FFF7FBFB70BDF0B587
:1053500087B06B4605911B7D04004371012100233A
:10536000150083608371E2600361416183620362BF
:10537000528CAB8CD218002A00D10A000F23298B43
:105380007820194002910421EB8BEF8C03932B8C36
:10539000AE8B0493BB000B400139013A31401943F5
:1053A000D30003401943130901937F08B608019BFA
:1053B000029A3B431343039A33431343049A134320
:1053C0002AD12000FFF7EAFB059B022B54D8236A61
:1053D000022163632000EE8AFFF7D2FB0670360AD3
:1053E000467002212000AE8AFFF7CAFB0023067038
:1053F000A21C360A4670A387D387059A042A6CD16B
:105400000227A98BEA8B8A180192019A934264D0F1
:105410006A8D002102925BE080235B421943C9B28E
:105420002000FFF7BBFB029B990140231940019B21
:1054300018013023184001430120049B1840039BAE
:105440000143D800082318400143043BB000184032
:10545000014302207B0003401943019B7F08C340A6
:105460000193029B76085B080293039B5B080393FE
:10547000049B5B0804939AE77E260127A36B626B6B
:10548000180051005B08920931403840A363014382
:105490006263134301D0802319432000FFF77EFB92
:1054A000A36B626B1343E9D191E70126E86ACA0056
:1054B0008218507830420AD05088834207D152680F
:1054C000D200606C99003A430A5001339DE70131E4
:1054D000029A9142E9DB0522F2E707B0F0BD10B570
:1054E000482003F0F3FF10BD10B50400816188006F
:1054F00003F0CDFFE06110BD10B50400C06903F0FA
:10550000FAFF200003F0F7FF10BD10B504000122E0
:1055100012F09DFB2378012B04D90378012B01D1D4
:105520000233037010BD70B505000E0010001900A5
:105530001C0012F07CFB0378012B05D1002273685C
:1055400021002800984770BD022B02D17368012208
:10555000F6E742883668032B04D100232100280097
:10556000B047F0E70123F9E710B5102003F0AEFFD4
:105570000722037893431A0001231343037010BDDD
:1055800030B5072504784160AC43250002242C4344
:1055900004707F24044D1C400388E4002B40234307
:1055A0000380826030BDC04607FCFFFF10B50B00D2
:1055B000072401782340A14319437F2301700499F4
:1055C0000A4C0B40D9000388426023400B43038000
:1055D000039B04685905064BC90A23400B4303602B
:1055E000029B8360059BC36010BDC04607FCFFFFA4
:1055F000FF03E0FF10B50400237808005B071100EB
:105600005B0F032B03D3042B0AD9052B12D0A368FD
:1056100062680AF0ADF823881B0712D5094B07E032
:10562000A36862680AF000F923881B0709D5064BB6
:10563000036006E02368E268D802400D61680AF062
:10564000FBF810BDB8540310F454031070B50C00EF
:1056500080214900214015000A1E01D06A6829688E
:10566000FFF7C8FF0223E2091A409A40E1B2AA18E4
:1056700008F0A2FB70BD70B5038CC46A032B03D184
:105680000023856AAB4205D18B00E250FAF750FF48
:10569000012070BD9E00A659964201D00133F1E76A
:1056A0000020F6E710B50400FAF79AFF2000FAF799
:1056B0005DFF10BD8BB270B505000C000384426223
:1056C000032B05D1836A00219A00C06A2AF0C4FB2B
:1056D000043C6142614128000131FAF706FF2800CD
:1056E0000021FAF74FFF70BD0F2370B5134004007F
:1056F000022B09D00A001048104909F0A1FB00252F
:10570000636A1860280070BD0025836A12099D42F3
:105710000AD1238C0025042BF4D10949064809F04D
:105720008FFB636A1860EDE7E06AA90009588A42B6
:10573000E8D00135EBE7C046404F03106B2903105A
:1057400080290310F7B51E000F2304000D0013403D
:105750001A48022B02D1100910F093FD037801932F
:10576000174B5A1C0023177801998F421BD141789F
:105770005778B94217D1817897788F4213D1002F8B
:105780000ED10F4A9B00D05CB04208D933002A00EA
:105790000C490D4809F054FB636A18600020FEBDF7
:1057A000C778002FEDD001330432152BDBD12A004E
:1057B0000649054809F044FBEEE7C0464AC7031016
:1057C000E329031097290310404F0310B029031059
:1057D000F0B585B005000091002A42D00324224292
:1057E0003FD1FF2153680B402F2B3AD19268203BC9
:1057F00010001840022808D100992800FFF7A2FFE6
:1058000001278740380005B0F0BD002A29D0144098
:1058100027D1506808409F2823D1D668706801407E
:10582000A1291ED1926800992800FFF78BFF01275C
:105830008740300003AA0830A2212CF0FDF9012393
:1058400006000193B442DDDA0399A2000F235258F7
:1058500028000099FFF776FF019B013483401F4326
:10586000F0E7009A0349044809F0EAFA6B6A002756
:105870001860C7E7C8290310404F0310F0B585B082
:1058800004000D00100003A91E002CF09DF9002853
:1058900009D12A000B490C4809F0D2FA636A186052
:1058A000002005B0F0BD039807F0DCFA0300B34315
:1058B000F7D0030000962A000449034809F0C0FA13
:1058C000ECE7C04628290310404F0310402903107D
:1058D000F0B50E0085B0040003A930001F0000924F
:1058E00010F0D4FC009B0500002B0FD1BB4B9E4257
:1058F00006D1BF2109022000FAF739FE05B0F0BD3C
:10590000D2239B009E4269D1B549F4E7009B012B4D
:1059100000D094E0A233FF339E4211D101003A68D7
:105920002000FFF7E1FE01002000FAF7C4FE002886
:10593000E4D1AC49AC48646A09F0F8F92060DDE7CD
:10594000A823FF339E4209D101003A682000FFF7E7
:10595000CBFE01002000FAF7EDFEE8E7AE23FF33AF
:105960009E420BD19F3B0100FF3B3A682000FFF7AE
:10597000E9FE8E21C000C9010143BCE70378622B18
:1059800035D1039B032B07D0052B30D1C3785F2B78
:105990002DD103796E2B2AD1012600236878764217
:1059A000924AD1184A78824205D1AA7889788A42E7
:1059B00001D18E4A9E5C03332A2BF1D1731C0DD08A
:1059C0003A6829002000FFF78FFE039B0200052B99
:1059D00000D090E12B79772B00D08CE1009B2A003E
:1059E0008349814809F02CFA636A186086E7E4234A
:1059F0005B009E4201D17F497DE7CA23FF339E426F
:105A000001D17D4977E77D4B9E420BD129003A6851
:105A10002000FFF7DDFEFF231B02B4211842DDD179
:105A20000902A9E7782ED9D13A6829002000FFF7AA
:105A3000CFFEFF231B021842D0D1BC21F0E7009B10
:105A4000022B00D0F2E00F227B6813406C4A022B3D
:105A50004AD1964212D13A6801000D332000FFF777
:105A600071FE7A68060029000F232000FFF76AFE06
:105A7000310002002000FAF7E7FD3FE796230022FD
:105A8000FF3301929E421AD18026F6013A6829001E
:105A900007232000FFF756FE7A68009029000723AD
:105AA0002000FFF74FFE009A030031002000FAF7B4
:105AB000C4FD23E7019B013301930F2B8ED0019B83
:105AC00003229E004F4B711C591828002CF004F93A
:105AD0000028EFD1EB78002BECD14A4BF65C802309
